:1000000000000120BD020000E5020000E702000040
:10001000E9020000EB020000ED0200000000000019
:10002000000000000000000000000000EF020000DF
:10003000F102000000000000F3020000F5020000E1
:10004000F7020000F7020000F7020000F7020000CC
:10005000F7020000F7020000F7020000F7020000BC
:10006000F7020000F7020000F7020000F7020000AC
:10007000F7020000F7020000F7020000F70200009C
:10008000F7020000F7020000F7020000F70200008C
:10009000F7020000F7020000F7020000F70200007C
:1000A000F7020000F7020000F7020000F70200006C
:1000B000F7020000F702000000000000000000004E
:1000C000F7020000F7020000F7020000F70200004C
:1000D000F7020000F7020000F70200000000000035
:1000E0000000000000000000000000000000000010
:1000F0000000000000000000000000000000000000
:1001000000000000000000000000000000000000EF
:1001100000000000000000000000000000000000DF
:1001200000000000000000000000000000000000CF
:1001300000000000000000000000000000000000BF
:1001400000000000000000000000000000000000AF
:10015000000000000000000000000000000000009F
:10016000000000000000000000000000000000008F
:10017000000000000000000000000000000000007F
:10018000000000000000000000000000000000006F
:10019000000000000000000000000000000000005F
:1001A000000000000000000000000000000000004F
:1001B000000000000000000000000000000000003F
:1001C000000000000000000000000000000000002F
:1001D000000000000000000000000000000000001F
:1001E000000000000000000000000000000000000F
:1001F00000000000000000000000000000000000FF
:1002000010B5054C237833B9044B13B10448AFF350
:1002100000800123237010BD6C000020000000004E
:100220000808000008B5034B1BB103490348AFF3AE
:10023000008008BD000000007000002008080000D9
:10024000A3F5803A704700BF174B002B08BF134B34
:100250009D46FFF7F5FF00218B460F461348144AD1
:10026000121A00F0ABFA0E4B002B00D098470D4B42
:10027000002B00D098470020002104000D000D48FD
:10028000002802D00C48AFF3008000F073FA200081
:10029000290000F071F800F059FA00BF00000800D2
:1002A0000000000000000000000001206C000020A1
:1002B0008800002000000000000000000649074AF6
:1002C000074B9B1A03DD043BC858D050FBDC00F001
:1002D00071F8FFF7B9FF00001408000000000020CB
:1002E0006C000020FEE7FEE7FEE7FEE7FEE7FEE724
:1002F000FEE7FEE7FEE7FEE7074B4FF0A041185C84
:10030000D1F804350122824022EA03001340C1F8EB
:100310000805C1F80C357047E8070000C20710B4A3
:100320001AD54FF0A04303224FF40031C3F84427FD
:100330004FF48024C3F84827C3F84C27C3F850274C
:10034000C3F808154FF480124FF40021C3F8084594
:10035000C3F80815C3F8082583070AD54FF0A04352
:100360000C22C3F83427C3F83827C3F83C27C3F856
:1003700040275DF8044B704738B501200C4DFFF75E
:10038000CDFF45F001050020FFF7B6FF4FF4FA74EA
:100390004FF47A40A847013CFAD10120FFF7ACFFA7
:1003A0004FF4FA744FF47A40A847013CFAD1EAE7D7
:1003B000F007000010B44FF08053D3F830315A1CCE
:1003C00004BF4FF0704393F8E03F062B08D14FF085
:1003D0008053B34AD3F82433C3F30423C2F840351F
:1003E0004FF0704393F8E02F062A00F01B814FF086
:1003F0008053D3F830315C1C04BF4FF0704393F846
:10040000E03F062B09D14FF080534FF08042D3F8E4
:100410004432C3F34233C2F83C354FF0704393F893
:10042000E02F062A00F0E9804FF08053D3F83031F6
:10043000581C04BF4FF0704393F8E03F062B08D1DF
:100440004FF080430022C3F80C21C3F81021C3F8F9
:1004500038254FF0704393F8E02F062A00F0AA8069
:100460004FF08052D2F83031591C20D0062BD2F8F0
:10047000342126D08B4AD2F8883043F47003C2F876
:100480008830BFF34F8FBFF36F8F4FF01023D3F837
:100490000022002AC0F22281D3F80432002BC0F2DD
:1004A0001D81814B814A1A605DF8044B70474FF003
:1004B000704292F8E01FD2F8E82F0629DAD1C2F391
:1004C0000312033A032A40F2C4804FF08053784A63
:1004D000D3F80414C2F82015D3F80814C2F8241570
:1004E000D3F80C14C2F82815D3F81014C2F82C1540
:1004F000D3F81414C2F83015D3F81814C2F8341510
:10050000D3F81C14C2F84015D3F82014C2F84415CF
:10051000D3F82414C2F84815D3F82814C2F84C159F
:10052000D3F82C14C2F85015D3F83014C2F854156F
:10053000D3F83414C2F86015D3F83814C2F864152F
:10054000D3F83C14C2F86815D3F84014C2F86C15FF
:10055000D3F84414D3F83031C2F870155C1C04BFD2
:100560004FF0704393F8E03F062B83D14FF0805259
:100570004FF08041D2F85832D2F8302103F04F03C7
:10058000501CC1F8E43E69D0062A7FF473AFD1F85D
:100590000034DA076ED44FF08053D3F83431033B84
:1005A000032B50D9434AD2F83C3743F48063C2F856
:1005B0003C375FE7D3F8E83FC3F30313033B032B58
:1005C0003FF64EAF3C4AD25C22B14FF0804203214D
:1005D000C2F8A015394AD35C002B3FF441AF384B29
:1005E0000524012000213F22C3F81046C3F88806E5
:1005F000C3F81816C3F8142632E7D3F8E83FC3F35C
:100600000313033B032B3FF60FAF2E4AD35C002BA3
:100610003FF40AAF234AD2F8FC3023F08073C2F8CB
:10062000FC3001E7D3F8E83FC3F30313033B032B8C
:100630003FF6DDAE244AD35C002B3FF4D8AE234B0B
:10064000234A5A67D3E6234AD35C002B3FF412AF08
:10065000A8E721498A5C002A80D036E74FF0704332
:1006600093F8E03F062B7FF405AFD1F80034DB07A9
:100670007FF500AF4FF080534FF08042D3F8303118
:100680006FF00101062BC2F800147FF4F3AE4FF0B7
:100690008053D3F83431033B032B83D8D3E700BF17
:1006A0000030014000ED00E0000000200090D00389
:1006B00000C00040001000400008000000080000DA
:1006C00000500040000800000008000000C0074083
:1006D0000DF0ADBAFC070000F8070000184A01232E
:1006E000C2F80435D2F80034002BFBD04FF01023B1
:1006F0001521134AC3F80012D2F80034002BFBD0A6
:100700004FF0102315210E4AC3F80412D2F800341A
:10071000002BFBD000230A49C2F80435D1F800347D
:10072000002BFBD0BFF34F8F0649074BCA6802F47A
:10073000E0621343CB60BFF34F8F00BFFDE700BF04
:1007400000E0014000ED00E00400FA0508B5074BA9
:10075000044613B10021AFF30080054B1868836A8B
:1007600003B19847204600F031F800BF00000000B8
:100770000408000070B50D4D0D4C641BA41000263C
:10078000A64209D10B4D0C4C00F022F8641BA410BA
:100790000026A64205D170BD55F8043B98470136A6
:1007A000EEE755F8043B98470136F2E76400002075
:1007B000640000206400002068000020024403461A
:1007C000934200D1704703F8011BF9E7FEE700BF31
:1007D000F8B500BFF8BC08BC9E467047F8B500BF2E
:1007E000F8BC08BC9E4670471112131400000000AC
:1007F0000338FDD87047000000000101000000012F
:0C080000010000000400002000000000C7
:08080C0034FAFF7F0100000037
:100814000090D00300000000000000000000000071
:1008240000000000000000000000000000000000C4
:1008340000000000000000000000000000000000B4
:1008440000000000000000000000000000000000A4
:100854000000000000000000000000000000000094
:100864000000000000000000000000000000000084
:0C0874000000000025020000010200004E
:04000003000002BD3A
:00000001FF
